{
  "_format": "hh-sol-artifact-1",
  "contractName": "SpaceRouter",
  "sourceName": "contracts/SpaceRouter.sol",
  "abi": [
    {
      "inputs": [
        {
          "internalType": "address",
          "name": "_spaceCoin",
          "type": "address"
        }
      ],
      "stateMutability": "nonpayable",
      "type": "constructor"
    },
    {
      "inputs": [
        {
          "internalType": "uint256",
          "name": "_tokens",
          "type": "uint256"
        },
        {
          "internalType": "address",
          "name": "_to",
          "type": "address"
        },
        {
          "internalType": "uint256",
          "name": "deadline",
          "type": "uint256"
        }
      ],
      "name": "addLiquidity",
      "outputs": [
        {
          "internalType": "uint256",
          "name": "owedLPTokens",
          "type": "uint256"
        }
      ],
      "stateMutability": "payable",
      "type": "function"
    },
    {
      "inputs": [],
      "name": "ethPrice",
      "outputs": [
        {
          "internalType": "uint256",
          "name": "",
          "type": "uint256"
        }
      ],
      "stateMutability": "view",
      "type": "function"
    },
    {
      "inputs": [
        {
          "internalType": "uint256",
          "name": "spc",
          "type": "uint256"
        }
      ],
      "name": "getEthValueForSpc",
      "outputs": [
        {
          "internalType": "uint256",
          "name": "eth",
          "type": "uint256"
        }
      ],
      "stateMutability": "view",
      "type": "function"
    },
    {
      "inputs": [
        {
          "internalType": "uint256",
          "name": "eth",
          "type": "uint256"
        }
      ],
      "name": "getSpcValueForEth",
      "outputs": [
        {
          "internalType": "uint256",
          "name": "spc",
          "type": "uint256"
        }
      ],
      "stateMutability": "view",
      "type": "function"
    },
    {
      "inputs": [
        {
          "internalType": "uint256",
          "name": "_amount",
          "type": "uint256"
        },
        {
          "internalType": "address",
          "name": "_to",
          "type": "address"
        },
        {
          "internalType": "uint256",
          "name": "deadline",
          "type": "uint256"
        }
      ],
      "name": "removeLiquidity",
      "outputs": [
        {
          "internalType": "uint256",
          "name": "owedSpaceCoins",
          "type": "uint256"
        },
        {
          "internalType": "uint256",
          "name": "owedEth",
          "type": "uint256"
        }
      ],
      "stateMutability": "nonpayable",
      "type": "function"
    },
    {
      "inputs": [],
      "name": "spaceCoin",
      "outputs": [
        {
          "internalType": "contract SpaceCoin",
          "name": "",
          "type": "address"
        }
      ],
      "stateMutability": "view",
      "type": "function"
    },
    {
      "inputs": [],
      "name": "spaceCoinLP",
      "outputs": [
        {
          "internalType": "contract SpaceCoinLP",
          "name": "",
          "type": "address"
        }
      ],
      "stateMutability": "view",
      "type": "function"
    },
    {
      "inputs": [],
      "name": "spcPrice",
      "outputs": [
        {
          "internalType": "uint256",
          "name": "",
          "type": "uint256"
        }
      ],
      "stateMutability": "view",
      "type": "function"
    },
    {
      "inputs": [
        {
          "internalType": "address",
          "name": "_to",
          "type": "address"
        },
        {
          "internalType": "uint256",
          "name": "minSpaceCoins",
          "type": "uint256"
        },
        {
          "internalType": "uint256",
          "name": "deadline",
          "type": "uint256"
        }
      ],
      "name": "swapEthForSPC",
      "outputs": [],
      "stateMutability": "payable",
      "type": "function"
    },
    {
      "inputs": [
        {
          "internalType": "uint256",
          "name": "_tokens",
          "type": "uint256"
        },
        {
          "internalType": "address",
          "name": "_to",
          "type": "address"
        },
        {
          "internalType": "uint256",
          "name": "minEth",
          "type": "uint256"
        },
        {
          "internalType": "uint256",
          "name": "deadline",
          "type": "uint256"
        }
      ],
      "name": "swapSPCForETH",
      "outputs": [],
      "stateMutability": "nonpayable",
      "type": "function"
    }
  ],
  "bytecode": "0x608060405234801561001057600080fd5b5060405161278338038061278383398101604081905261002f916100b8565b600080546001600160a01b0319166001600160a01b0383161790556040518190610058906100ab565b6001600160a01b039091168152602001604051809103906000f080158015610084573d6000803e3d6000fd5b50600180546001600160a01b0319166001600160a01b0392909216919091179055506100e8565b61181a80610f6983390190565b6000602082840312156100ca57600080fd5b81516001600160a01b03811681146100e157600080fd5b9392505050565b610e72806100f76000396000f3fe6080604052600436106100b15760003560e01c80639aa5d46211610069578063c4ccdeea1161004e578063c4ccdeea1461019f578063e48575d4146101d4578063ff186b2e146101f457600080fd5b80639aa5d4621461016c578063a72d2c6b1461017f57600080fd5b806352d0b8ca1161009a57806352d0b8ca146100f45780636a1e235d1461012c57806380a6ad601461014c57600080fd5b8063142d27ed146100b657806334499dd7146100cb575b600080fd5b6100c96100c4366004610cbd565b61020a565b005b3480156100d757600080fd5b506100e160035481565b6040519081526020015b60405180910390f35b34801561010057600080fd5b50600154610114906001600160a01b031681565b6040516001600160a01b0390911681526020016100eb565b34801561013857600080fd5b506100e1610147366004610cf0565b610359565b34801561015857600080fd5b506100c9610167366004610d09565b61049e565b6100e161017a366004610d44565b610630565b34801561018b57600080fd5b506100e161019a366004610cf0565b61087f565b3480156101ab57600080fd5b506101bf6101ba366004610d44565b6109bc565b604080519283526020830191909152016100eb565b3480156101e057600080fd5b50600054610114906001600160a01b031681565b34801561020057600080fd5b506100e160025481565b80804211156102605760405162461bcd60e51b815260206004820152601a60248201527f5370616365526f757465723a205061737420646561646c696e6500000000000060448201526064015b60405180910390fd5b600061026b3461087f565b9050838110156102e35760405162461bcd60e51b815260206004820152602760248201527f5370616365526f757465723a204d696e696d756d205370616365436f696e732060448201527f6e6f74206d6574000000000000000000000000000000000000000000000000006064820152608401610257565b600154604051639f1d0f5960e01b81526001600160a01b038781166004830152602482018490526000604483015290911690639f1d0f599034906064016000604051808303818588803b15801561033957600080fd5b505af115801561034d573d6000803e3d6000fd5b50505050505050505050565b600080600160009054906101000a90046001600160a01b03166001600160a01b0316633e9f5e5a6040518163ffffffff1660e01b815260040160206040518083038186803b1580156103aa57600080fd5b505afa1580156103be573d6000803e3d6000fd5b505050506040513d601f19601f820116820180604052508101906103e29190610d79565b90506000600160009054906101000a90046001600160a01b03166001600160a01b03166397adce1c6040518163ffffffff1660e01b815260040160206040518083038186803b15801561043457600080fd5b505afa158015610448573d6000803e3d6000fd5b505050506040513d601f19601f8201168201806040525081019061046c9190610d79565b90506104788483610da8565b6104828284610dc0565b61048c9190610ddf565b6104969082610e01565b949350505050565b80804211156104ef5760405162461bcd60e51b815260206004820152601a60248201527f5370616365526f757465723a205061737420646561646c696e650000000000006044820152606401610257565b60006104fa86610359565b90508381101561054c5760405162461bcd60e51b815260206004820181905260248201527f5370616365526f757465723a204d696e696d756d20657468206e6f74206d65746044820152606401610257565b6000546001546040516323b872dd60e01b81523360048201526001600160a01b039182166024820152604481018990529116906323b872dd90606401602060405180830381600087803b1580156105a257600080fd5b505af11580156105b6573d6000803e3d6000fd5b505050506040513d601f19601f820116820180604052508101906105da9190610e18565b50600154604051639f1d0f5960e01b81526001600160a01b038781166004830152600060248301526044820184905290911690639f1d0f5990606401600060405180830381600087803b15801561033957600080fd5b600081804211156106835760405162461bcd60e51b815260206004820152601a60248201527f5370616365526f757465723a205061737420646561646c696e650000000000006044820152606401610257565b60008061068f87610b27565b6000546001546040516323b872dd60e01b81523360048201526001600160a01b0391821660248201526044810185905293955091935016906323b872dd90606401602060405180830381600087803b1580156106ea57600080fd5b505af11580156106fe573d6000803e3d6000fd5b505050506040513d601f19601f820116820180604052508101906107229190610e18565b506001546040516335313c2160e11b81526001600160a01b03888116600483015290911690636a6278429083906024016020604051808303818588803b15801561076b57600080fd5b505af115801561077f573d6000803e3d6000fd5b50505050506040513d601f19601f820116820180604052508101906107a49190610d79565b935034811015610875576000336107bb8334610e01565b604051600081818185875af1925050503d80600081146107f7576040519150601f19603f3d011682016040523d82523d6000602084013e6107fc565b606091505b50509050806108735760405162461bcd60e51b815260206004820152602860248201527f5370616365526f757465723a2052657475726e696e672065786365737320657460448201527f68206661696c65640000000000000000000000000000000000000000000000006064820152608401610257565b505b5050509392505050565b600080600160009054906101000a90046001600160a01b03166001600160a01b0316633e9f5e5a6040518163ffffffff1660e01b815260040160206040518083038186803b1580156108d057600080fd5b505afa1580156108e4573d6000803e3d6000fd5b505050506040513d601f19601f820116820180604052508101906109089190610d79565b90506000600160009054906101000a90046001600160a01b03166001600160a01b03166397adce1c6040518163ffffffff1660e01b815260040160206040518083038186803b15801561095a57600080fd5b505afa15801561096e573d6000803e3d6000fd5b505050506040513d601f19601f820116820180604052508101906109929190610d79565b905061099e8482610da8565b6109a88284610dc0565b6109b29190610ddf565b6104969083610e01565b6000808280421115610a105760405162461bcd60e51b815260206004820152601a60248201527f5370616365526f757465723a205061737420646561646c696e650000000000006044820152606401610257565b6001546040516323b872dd60e01b81523360048201526001600160a01b039091166024820181905260448201889052906323b872dd90606401602060405180830381600087803b158015610a6357600080fd5b505af1158015610a77573d6000803e3d6000fd5b505050506040513d601f19601f82011682018060405250810190610a9b9190610e18565b5060015460405163226bf2d160e21b81526001600160a01b038781166004830152909116906389afcb44906024016040805180830381600087803b158015610ae257600080fd5b505af1158015610af6573d6000803e3d6000fd5b505050506040513d601f19601f82011682018060405250810190610b1a9190610e41565b9097909650945050505050565b600154604080516325eb738760e21b815290516000928392349284926001600160a01b0316916397adce1c916004808301926020929190829003018186803b158015610b7257600080fd5b505afa158015610b86573d6000803e3d6000fd5b505050506040513d601f19601f82011682018060405250810190610baa9190610d79565b90506000600160009054906101000a90046001600160a01b03166001600160a01b0316633e9f5e5a6040518163ffffffff1660e01b815260040160206040518083038186803b158015610bfc57600080fd5b505afa158015610c10573d6000803e3d6000fd5b505050506040513d601f19601f82011682018060405250810190610c349190610d79565b905081158015610c42575080155b15610c5257509394909350915050565b600081610c5f8489610dc0565b610c699190610ddf565b9050808410610c7c579596945050505050565b600083610c898487610dc0565b610c939190610ddf565b989497509395505050505050565b80356001600160a01b0381168114610cb857600080fd5b919050565b600080600060608486031215610cd257600080fd5b610cdb84610ca1565b95602085013595506040909401359392505050565b600060208284031215610d0257600080fd5b5035919050565b60008060008060808587031215610d1f57600080fd5b84359350610d2f60208601610ca1565b93969395505050506040820135916060013590565b600080600060608486031215610d5957600080fd5b83359250610d6960208501610ca1565b9150604084013590509250925092565b600060208284031215610d8b57600080fd5b5051919050565b634e487b7160e01b600052601160045260246000fd5b60008219821115610dbb57610dbb610d92565b500190565b6000816000190483118215151615610dda57610dda610d92565b500290565b600082610dfc57634e487b7160e01b600052601260045260246000fd5b500490565b600082821015610e1357610e13610d92565b500390565b600060208284031215610e2a57600080fd5b81518015158114610e3a57600080fd5b9392505050565b60008060408385031215610e5457600080fd5b50508051602090910151909290915056fea164736f6c6343000809000a60806040523480156200001157600080fd5b506040516200181a3803806200181a833981016040819052620000349162000171565b604080518082018252600d81526c053706163652d636f696e2d6c7609c1b6020808301918252835180850190945260068452650a6a0868aa8960d31b9084015281519192916200008791600391620000cb565b5080516200009d906004906020840190620000cb565b5050600160055550600880546001600160a01b0319166001600160a01b0392909216919091179055620001e0565b828054620000d990620001a3565b90600052602060002090601f016020900481019282620000fd576000855562000148565b82601f106200011857805160ff191683800117855562000148565b8280016001018555821562000148579182015b82811115620001485782518255916020019190600101906200012b565b50620001569291506200015a565b5090565b5b808211156200015657600081556001016200015b565b6000602082840312156200018457600080fd5b81516001600160a01b03811681146200019c57600080fd5b9392505050565b600181811c90821680620001b857607f821691505b60208210811415620001da57634e487b7160e01b600052602260045260246000fd5b50919050565b61162a80620001f06000396000f3fe60806040526004361061010e5760003560e01c806370a08231116100a55780639f1d0f5911610074578063a9059cbb11610059578063a9059cbb146102dd578063dd62ed3e146102fd578063e48575d41461034357600080fd5b80639f1d0f59146102a8578063a457c2d7146102bd57600080fd5b806370a082311461021257806389afcb441461024857806395d89b411461027d57806397adce1c1461029257600080fd5b8063313ce567116100e1578063313ce567146101ad57806339509351146101c95780633e9f5e5a146101e95780636a627842146101ff57600080fd5b806306fdde0314610113578063095ea7b31461013e57806318160ddd1461016e57806323b872dd1461018d575b600080fd5b34801561011f57600080fd5b5061012861037b565b60405161013591906113d4565b60405180910390f35b34801561014a57600080fd5b5061015e610159366004611440565b61040d565b6040519015158152602001610135565b34801561017a57600080fd5b506002545b604051908152602001610135565b34801561019957600080fd5b5061015e6101a836600461146a565b610425565b3480156101b957600080fd5b5060405160128152602001610135565b3480156101d557600080fd5b5061015e6101e4366004611440565b610449565b3480156101f557600080fd5b5061017f60075481565b61017f61020d3660046114a6565b610488565b34801561021e57600080fd5b5061017f61022d3660046114a6565b6001600160a01b031660009081526020819052604090205490565b34801561025457600080fd5b506102686102633660046114a6565b61055d565b60408051928352602083019190915201610135565b34801561028957600080fd5b50610128610709565b34801561029e57600080fd5b5061017f60065481565b6102bb6102b63660046114c1565b610718565b005b3480156102c957600080fd5b5061015e6102d8366004611440565b610a43565b3480156102e957600080fd5b5061015e6102f8366004611440565b610aed565b34801561030957600080fd5b5061017f6103183660046114f4565b6001600160a01b03918216600090815260016020908152604080832093909416825291909152205490565b34801561034f57600080fd5b50600854610363906001600160a01b031681565b6040516001600160a01b039091168152602001610135565b60606003805461038a90611527565b80601f01602080910402602001604051908101604052809291908181526020018280546103b690611527565b80156104035780601f106103d857610100808354040283529160200191610403565b820191906000526020600020905b8154815290600101906020018083116103e657829003601f168201915b5050505050905090565b60003361041b818585610afb565b5060019392505050565b600033610433858285610c1f565b61043e858585610cb1565b506001949350505050565b3360008181526001602090815260408083206001600160a01b038716845290915281205490919061041b9082908690610483908790611572565b610afb565b6000600260055414156104e25760405162461bcd60e51b815260206004820152601f60248201527f5265656e7472616e637947756172643a207265656e7472616e742063616c6c0060448201526064015b60405180910390fd5b60026005556104ef610eae565b9050600081116105415760405162461bcd60e51b815260206004820152601e60248201527f5370616365436f696e4c503a20496e76616c6964206c6971756964697479000060448201526064016104d9565b61054b8282610fcd565b6105536110ac565b6001600555919050565b600080600260055414156105b35760405162461bcd60e51b815260206004820152601f60248201527f5265656e7472616e637947756172643a207265656e7472616e742063616c6c0060448201526064016104d9565b600260055530600090815260208190526040902054806106155760405162461bcd60e51b815260206004820152601b60248201527f5370616365436f696e4c503a204e6f204c5020746f207472616465000000000060448201526064016104d9565b600061062060025490565b90508060075483610631919061158a565b61063b91906115a9565b9350806006548361064c919061158a565b61065691906115a9565b60085460405163a9059cbb60e01b81526001600160a01b0388811660048301526024820188905292955091169063a9059cbb90604401602060405180830381600087803b1580156106a657600080fd5b505af11580156106ba573d6000803e3d6000fd5b505050506040513d601f19601f820116820180604052508101906106de91906115cb565b506106e98584611130565b6106f330836111fe565b6106fb6110ac565b505060016005559092909150565b60606004805461038a90611527565b6002600554141561076b5760405162461bcd60e51b815260206004820152601f60248201527f5265656e7472616e637947756172643a207265656e7472616e742063616c6c0060448201526064016104d9565b60026005558115158061077e5750600081115b6107f05760405162461bcd60e51b815260206004820152602560248201527f5370616365436f696e4c503a20496e76616c696420616d6f756e747320666f7260448201527f207377617000000000000000000000000000000000000000000000000000000060648201526084016104d9565b60075482108015610802575060065481105b61084e5760405162461bcd60e51b815260206004820152601e60248201527f5370616365436f696e4c503a2046756e647320756e617661696c61626c65000060448201526064016104d9565b600061085b6064846115a9565b9050600061086a6064846115a9565b90508315610926576008546001600160a01b031663a9059cbb8661088e85886115ed565b6040517fffffffff0000000000000000000000000000000000000000000000000000000060e085901b1681526001600160a01b0390921660048301526024820152604401602060405180830381600087803b1580156108ec57600080fd5b505af1158015610900573d6000803e3d6000fd5b505050506040513d601f19601f8201168201806040525081019061092491906115cb565b505b821561093f5761093f8561093a83866115ed565b611130565b6000600754600654610951919061158a565b6008546040516370a0823160e01b815230600482015291925060009147916001600160a01b0316906370a082319060240160206040518083038186803b15801561099a57600080fd5b505afa1580156109ae573d6000803e3d6000fd5b505050506040513d601f19601f820116820180604052508101906109d29190611604565b6109dc919061158a565b9050818111610a2d5760405162461bcd60e51b815260206004820152601960248201527f5370616365436f696e4c503a20496e76616c696420737761700000000000000060448201526064016104d9565b610a356110ac565b505060016005555050505050565b3360008181526001602090815260408083206001600160a01b038716845290915281205490919083811015610ae05760405162461bcd60e51b815260206004820152602560248201527f45524332303a2064656372656173656420616c6c6f77616e63652062656c6f7760448201527f207a65726f00000000000000000000000000000000000000000000000000000060648201526084016104d9565b61043e8286868403610afb565b60003361041b818585610cb1565b6001600160a01b038316610b5d5760405162461bcd60e51b8152602060048201526024808201527f45524332303a20617070726f76652066726f6d20746865207a65726f206164646044820152637265737360e01b60648201526084016104d9565b6001600160a01b038216610bbe5760405162461bcd60e51b815260206004820152602260248201527f45524332303a20617070726f766520746f20746865207a65726f206164647265604482015261737360f01b60648201526084016104d9565b6001600160a01b0383811660008181526001602090815260408083209487168084529482529182902085905590518481527f8c5be1e5ebec7d5bd14f71427d1e84f3dd0314c0f7b2291e5b200ac8c7c3b925910160405180910390a3505050565b6001600160a01b038381166000908152600160209081526040808320938616835292905220546000198114610cab5781811015610c9e5760405162461bcd60e51b815260206004820152601d60248201527f45524332303a20696e73756666696369656e7420616c6c6f77616e636500000060448201526064016104d9565b610cab8484848403610afb565b50505050565b6001600160a01b038316610d2d5760405162461bcd60e51b815260206004820152602560248201527f45524332303a207472616e736665722066726f6d20746865207a65726f20616460448201527f647265737300000000000000000000000000000000000000000000000000000060648201526084016104d9565b6001600160a01b038216610d8f5760405162461bcd60e51b815260206004820152602360248201527f45524332303a207472616e7366657220746f20746865207a65726f206164647260448201526265737360e81b60648201526084016104d9565b6001600160a01b03831660009081526020819052604090205481811015610e1e5760405162461bcd60e51b815260206004820152602660248201527f45524332303a207472616e7366657220616d6f756e742065786365656473206260448201527f616c616e6365000000000000000000000000000000000000000000000000000060648201526084016104d9565b6001600160a01b03808516600090815260208190526040808220858503905591851681529081208054849290610e55908490611572565b92505081905550826001600160a01b0316846001600160a01b03167fddf252ad1be2c89b69c2b068fc378daa952ba7f163c4a11628f55a4df523b3ef84604051610ea191815260200190565b60405180910390a3610cab565b6008546040516370a0823160e01b815230600482015260009182916001600160a01b03909116906370a082319060240160206040518083038186803b158015610ef657600080fd5b505afa158015610f0a573d6000803e3d6000fd5b505050506040513d601f19601f82011682018060405250810190610f2e9190611604565b9050476000610f3c60025490565b6007546006549192509082610f6757610f5d610f58858761158a565b61134c565b9550505050505090565b6000610f7383876115ed565b90506000610f8183876115ed565b9050600084610f90878561158a565b610f9a91906115a9565b9050600084610fa9888561158a565b610fb391906115a9565b9050610fbf82826113bc565b995050505050505050505090565b6001600160a01b0382166110235760405162461bcd60e51b815260206004820152601f60248201527f45524332303a206d696e7420746f20746865207a65726f20616464726573730060448201526064016104d9565b80600260008282546110359190611572565b90915550506001600160a01b03821660009081526020819052604081208054839290611062908490611572565b90915550506040518181526001600160a01b038316906000907fddf252ad1be2c89b69c2b068fc378daa952ba7f163c4a11628f55a4df523b3ef9060200160405180910390a35050565b6008546040516370a0823160e01b81523060048201526001600160a01b03909116906370a082319060240160206040518083038186803b1580156110ef57600080fd5b505afa158015611103573d6000803e3d6000fd5b505050506040513d601f19601f820116820180604052508101906111279190611604565b60075547600655565b6000826001600160a01b03168260405160006040518083038185875af1925050503d806000811461117d576040519150601f19603f3d011682016040523d82523d6000602084013e611182565b606091505b50509050806111f95760405162461bcd60e51b815260206004820152602b60248201527f5370616365436f696e4c503a204661696c656420746f207472616e736665722060448201527f45544820746f207573657200000000000000000000000000000000000000000060648201526084016104d9565b505050565b6001600160a01b03821661125e5760405162461bcd60e51b815260206004820152602160248201527f45524332303a206275726e2066726f6d20746865207a65726f206164647265736044820152607360f81b60648201526084016104d9565b6001600160a01b038216600090815260208190526040902054818110156112d25760405162461bcd60e51b815260206004820152602260248201527f45524332303a206275726e20616d6f756e7420657863656564732062616c616e604482015261636560f01b60648201526084016104d9565b6001600160a01b03831660009081526020819052604081208383039055600280548492906113019084906115ed565b90915550506040518281526000906001600160a01b038516907fddf252ad1be2c89b69c2b068fc378daa952ba7f163c4a11628f55a4df523b3ef9060200160405180910390a3505050565b600060038211156113ad57508060006113666002836115a9565b611371906001611572565b90505b818110156113a75790508060028161138c81866115a9565b6113969190611572565b6113a091906115a9565b9050611374565b50919050565b81156113b7575060015b919050565b60008183106113cb57816113cd565b825b9392505050565b600060208083528351808285015260005b81811015611401578581018301518582016040015282016113e5565b81811115611413576000604083870101525b50601f01601f1916929092016040019392505050565b80356001600160a01b03811681146113b757600080fd5b6000806040838503121561145357600080fd5b61145c83611429565b946020939093013593505050565b60008060006060848603121561147f57600080fd5b61148884611429565b925061149660208501611429565b9150604084013590509250925092565b6000602082840312156114b857600080fd5b6113cd82611429565b6000806000606084860312156114d657600080fd5b6114df84611429565b95602085013595506040909401359392505050565b6000806040838503121561150757600080fd5b61151083611429565b915061151e60208401611429565b90509250929050565b600181811c9082168061153b57607f821691505b602082108114156113a757634e487b7160e01b600052602260045260246000fd5b634e487b7160e01b600052601160045260246000fd5b600082198211156115855761158561155c565b500190565b60008160001904831182151516156115a4576115a461155c565b500290565b6000826115c657634e487b7160e01b600052601260045260246000fd5b500490565b6000602082840312156115dd57600080fd5b815180151581146113cd57600080fd5b6000828210156115ff576115ff61155c565b500390565b60006020828403121561161657600080fd5b505191905056fea164736f6c6343000809000a",
  "linkReferences": {},
  "deployedLinkReferences": {}
}