{
  "_format": "hh-sol-artifact-1",
  "contractName": "SpaceCoin",
  "sourceName": "contracts/ico/SpaceCoin.sol",
  "abi": [
    {
      "inputs": [
        {
          "internalType": "uint256",
          "name": "_supply",
          "type": "uint256"
        },
        {
          "internalType": "address",
          "name": "_treasury",
          "type": "address"
        }
      ],
      "stateMutability": "nonpayable",
      "type": "constructor"
    },
    {
      "anonymous": false,
      "inputs": [
        {
          "indexed": true,
          "internalType": "address",
          "name": "owner",
          "type": "address"
        },
        {
          "indexed": true,
          "internalType": "address",
          "name": "spender",
          "type": "address"
        },
        {
          "indexed": false,
          "internalType": "uint256",
          "name": "value",
          "type": "uint256"
        }
      ],
      "name": "Approval",
      "type": "event"
    },
    {
      "anonymous": false,
      "inputs": [
        {
          "indexed": true,
          "internalType": "address",
          "name": "owner",
          "type": "address"
        },
        {
          "indexed": true,
          "internalType": "address",
          "name": "icoAddress",
          "type": "address"
        },
        {
          "indexed": false,
          "internalType": "uint256",
          "name": "fundingGoal",
          "type": "uint256"
        }
      ],
      "name": "IcoInitiated",
      "type": "event"
    },
    {
      "anonymous": false,
      "inputs": [
        {
          "indexed": true,
          "internalType": "address",
          "name": "previousOwner",
          "type": "address"
        },
        {
          "indexed": true,
          "internalType": "address",
          "name": "newOwner",
          "type": "address"
        }
      ],
      "name": "OwnershipTransferred",
      "type": "event"
    },
    {
      "anonymous": false,
      "inputs": [
        {
          "indexed": true,
          "internalType": "address",
          "name": "owner",
          "type": "address"
        },
        {
          "indexed": false,
          "internalType": "uint256",
          "name": "projectId",
          "type": "uint256"
        }
      ],
      "name": "ProjectCancelled",
      "type": "event"
    },
    {
      "anonymous": false,
      "inputs": [
        {
          "indexed": true,
          "internalType": "address",
          "name": "owner",
          "type": "address"
        },
        {
          "indexed": false,
          "internalType": "bool",
          "name": "taxEnabled",
          "type": "bool"
        }
      ],
      "name": "TaxToggled",
      "type": "event"
    },
    {
      "anonymous": false,
      "inputs": [
        {
          "indexed": true,
          "internalType": "address",
          "name": "from",
          "type": "address"
        },
        {
          "indexed": true,
          "internalType": "address",
          "name": "to",
          "type": "address"
        },
        {
          "indexed": false,
          "internalType": "uint256",
          "name": "value",
          "type": "uint256"
        }
      ],
      "name": "Transfer",
      "type": "event"
    },
    {
      "inputs": [
        {
          "internalType": "address",
          "name": "owner",
          "type": "address"
        },
        {
          "internalType": "address",
          "name": "spender",
          "type": "address"
        }
      ],
      "name": "allowance",
      "outputs": [
        {
          "internalType": "uint256",
          "name": "",
          "type": "uint256"
        }
      ],
      "stateMutability": "view",
      "type": "function"
    },
    {
      "inputs": [
        {
          "internalType": "address",
          "name": "spender",
          "type": "address"
        },
        {
          "internalType": "uint256",
          "name": "amount",
          "type": "uint256"
        }
      ],
      "name": "approve",
      "outputs": [
        {
          "internalType": "bool",
          "name": "",
          "type": "bool"
        }
      ],
      "stateMutability": "nonpayable",
      "type": "function"
    },
    {
      "inputs": [
        {
          "internalType": "address",
          "name": "account",
          "type": "address"
        }
      ],
      "name": "balanceOf",
      "outputs": [
        {
          "internalType": "uint256",
          "name": "",
          "type": "uint256"
        }
      ],
      "stateMutability": "view",
      "type": "function"
    },
    {
      "inputs": [],
      "name": "decimals",
      "outputs": [
        {
          "internalType": "uint8",
          "name": "",
          "type": "uint8"
        }
      ],
      "stateMutability": "view",
      "type": "function"
    },
    {
      "inputs": [
        {
          "internalType": "address",
          "name": "spender",
          "type": "address"
        },
        {
          "internalType": "uint256",
          "name": "subtractedValue",
          "type": "uint256"
        }
      ],
      "name": "decreaseAllowance",
      "outputs": [
        {
          "internalType": "bool",
          "name": "",
          "type": "bool"
        }
      ],
      "stateMutability": "nonpayable",
      "type": "function"
    },
    {
      "inputs": [],
      "name": "icoContract",
      "outputs": [
        {
          "internalType": "contract ICO",
          "name": "",
          "type": "address"
        }
      ],
      "stateMutability": "view",
      "type": "function"
    },
    {
      "inputs": [
        {
          "internalType": "address",
          "name": "spender",
          "type": "address"
        },
        {
          "internalType": "uint256",
          "name": "addedValue",
          "type": "uint256"
        }
      ],
      "name": "increaseAllowance",
      "outputs": [
        {
          "internalType": "bool",
          "name": "",
          "type": "bool"
        }
      ],
      "stateMutability": "nonpayable",
      "type": "function"
    },
    {
      "inputs": [],
      "name": "name",
      "outputs": [
        {
          "internalType": "string",
          "name": "",
          "type": "string"
        }
      ],
      "stateMutability": "view",
      "type": "function"
    },
    {
      "inputs": [],
      "name": "owner",
      "outputs": [
        {
          "internalType": "address",
          "name": "",
          "type": "address"
        }
      ],
      "stateMutability": "view",
      "type": "function"
    },
    {
      "inputs": [],
      "name": "renounceOwnership",
      "outputs": [],
      "stateMutability": "nonpayable",
      "type": "function"
    },
    {
      "inputs": [],
      "name": "symbol",
      "outputs": [
        {
          "internalType": "string",
          "name": "",
          "type": "string"
        }
      ],
      "stateMutability": "view",
      "type": "function"
    },
    {
      "inputs": [],
      "name": "taxEnabled",
      "outputs": [
        {
          "internalType": "bool",
          "name": "",
          "type": "bool"
        }
      ],
      "stateMutability": "view",
      "type": "function"
    },
    {
      "inputs": [],
      "name": "toggleTax",
      "outputs": [],
      "stateMutability": "nonpayable",
      "type": "function"
    },
    {
      "inputs": [],
      "name": "totalSupply",
      "outputs": [
        {
          "internalType": "uint256",
          "name": "",
          "type": "uint256"
        }
      ],
      "stateMutability": "view",
      "type": "function"
    },
    {
      "inputs": [
        {
          "internalType": "address",
          "name": "to",
          "type": "address"
        },
        {
          "internalType": "uint256",
          "name": "amount",
          "type": "uint256"
        }
      ],
      "name": "transfer",
      "outputs": [
        {
          "internalType": "bool",
          "name": "",
          "type": "bool"
        }
      ],
      "stateMutability": "nonpayable",
      "type": "function"
    },
    {
      "inputs": [
        {
          "internalType": "address",
          "name": "from",
          "type": "address"
        },
        {
          "internalType": "address",
          "name": "to",
          "type": "address"
        },
        {
          "internalType": "uint256",
          "name": "amount",
          "type": "uint256"
        }
      ],
      "name": "transferFrom",
      "outputs": [
        {
          "internalType": "bool",
          "name": "",
          "type": "bool"
        }
      ],
      "stateMutability": "nonpayable",
      "type": "function"
    },
    {
      "inputs": [
        {
          "internalType": "address",
          "name": "newOwner",
          "type": "address"
        }
      ],
      "name": "transferOwnership",
      "outputs": [],
      "stateMutability": "nonpayable",
      "type": "function"
    },
    {
      "inputs": [],
      "name": "treasury",
      "outputs": [
        {
          "internalType": "address",
          "name": "",
          "type": "address"
        }
      ],
      "stateMutability": "view",
      "type": "function"
    }
  ],
  "bytecode": "0x60806040526007805460ff60a01b191690553480156200001e57600080fd5b5060405162002447380380620024478339810160408190526200004191620003a9565b6040518060400160405280600a81526020016939b830b1b296b1b7b4b760b11b8152506040518060400160405280600381526020016253504360e81b815250816003908051906020019062000098929190620002f5565b508051620000ae906004906020840190620002f5565b505050620000cb620000c5620001b760201b60201c565b620001bb565b600680546001600160a01b0319166001600160a01b03831617905560405130903390620000f89062000384565b6001600160a01b03928316815291166020820152604001604051809103906000f0801580156200012c573d6000803e3d6000fd5b50600780546001600160a01b0319166001600160a01b03928316179055600654691fc3842bd1f071c00000916200019691168262000168601290565b620001789060ff16600a620004fd565b62000184908762000512565b62000190919062000534565b6200020d565b600754620001ae906001600160a01b0316826200020d565b505050620005a6565b3390565b600580546001600160a01b038381166001600160a01b0319831681179093556040519116919082907f8be0079c531659141344cd1fd0a4f28419497f9722a3daafe3b4186f6b6457e090600090a35050565b6001600160a01b038216620002685760405162461bcd60e51b815260206004820152601f60248201527f45524332303a206d696e7420746f20746865207a65726f206164647265737300604482015260640160405180910390fd5b80600260008282546200027c91906200054e565b90915550506001600160a01b03821660009081526020819052604081208054839290620002ab9084906200054e565b90915550506040518181526001600160a01b038316906000907fddf252ad1be2c89b69c2b068fc378daa952ba7f163c4a11628f55a4df523b3ef9060200160405180910390a35050565b828054620003039062000569565b90600052602060002090601f01602090048101928262000327576000855562000372565b82601f106200034257805160ff191683800117855562000372565b8280016001018555821562000372579182015b828111156200037257825182559160200191906001019062000355565b506200038092915062000392565b5090565b61115980620012ee83390190565b5b8082111562000380576000815560010162000393565b60008060408385031215620003bd57600080fd5b825160208401519092506001600160a01b0381168114620003dd57600080fd5b809150509250929050565b634e487b7160e01b600052601160045260246000fd5b600181815b808511156200043f578160001904821115620004235762000423620003e8565b808516156200043157918102915b93841c939080029062000403565b509250929050565b6000826200045857506001620004f7565b816200046757506000620004f7565b81600181146200048057600281146200048b57620004ab565b6001915050620004f7565b60ff8411156200049f576200049f620003e8565b50506001821b620004f7565b5060208310610133831016604e8410600b8410161715620004d0575081810a620004f7565b620004dc8383620003fe565b8060001904821115620004f357620004f3620003e8565b0290505b92915050565b60006200050b838362000447565b9392505050565b60008160001904831182151516156200052f576200052f620003e8565b500290565b600082821015620005495762000549620003e8565b500390565b60008219821115620005645762000564620003e8565b500190565b600181811c908216806200057e57607f821691505b60208210811415620005a057634e487b7160e01b600052602260045260246000fd5b50919050565b610d3880620005b66000396000f3fe608060405234801561001057600080fd5b50600436106101365760003560e01c8063715018a6116100b2578063a457c2d711610081578063c66e409511610066578063c66e40951461027c578063dd62ed3e1461028f578063f2fde38b146102c857600080fd5b8063a457c2d714610256578063a9059cbb1461026957600080fd5b8063715018a614610221578063870bd30b146102295780638da5cb5b1461023d57806395d89b411461024e57600080fd5b806323b872dd1161010957806339509351116100ee57806339509351146101ba57806361d027b3146101cd57806370a08231146101f857600080fd5b806323b872dd14610198578063313ce567146101ab57600080fd5b806306fdde031461013b578063095ea7b31461015957806310bf60291461017c57806318160ddd14610186575b600080fd5b6101436102db565b6040516101509190610b5d565b60405180910390f35b61016c610167366004610bce565b61036d565b6040519015158152602001610150565b610184610385565b005b6002545b604051908152602001610150565b61016c6101a6366004610bf8565b610465565b60405160128152602001610150565b61016c6101c8366004610bce565b610489565b6006546101e0906001600160a01b031681565b6040516001600160a01b039091168152602001610150565b61018a610206366004610c34565b6001600160a01b031660009081526020819052604090205490565b6101846104c8565b60075461016c90600160a01b900460ff1681565b6005546001600160a01b03166101e0565b61014361052e565b61016c610264366004610bce565b61053d565b61016c610277366004610bce565b6105e7565b6007546101e0906001600160a01b031681565b61018a61029d366004610c56565b6001600160a01b03918216600090815260016020908152604080832093909416825291909152205490565b6101846102d6366004610c34565b6105f5565b6060600380546102ea90610c89565b80601f016020809104026020016040519081016040528092919081815260200182805461031690610c89565b80156103635780601f1061033857610100808354040283529160200191610363565b820191906000526020600020905b81548152906001019060200180831161034657829003601f168201915b5050505050905090565b60003361037b8185856106d7565b5060019392505050565b6005546001600160a01b031633146103e45760405162461bcd60e51b815260206004820181905260248201527f4f776e61626c653a2063616c6c6572206973206e6f7420746865206f776e657260448201526064015b60405180910390fd5b6007805460ff600160a01b80830482161581027fffffffffffffffffffffff00ffffffffffffffffffffffffffffffffffffffff909316929092179283905560405133937f4225eee2f8686733e4fd44379462d24e188a81c9593f3d37eb6d40d2adf1d0469361045b939104161515815260200190565b60405180910390a2565b6000336104738582856107fb565b61047e85858561088d565b506001949350505050565b3360008181526001602090815260408083206001600160a01b038716845290915281205490919061037b90829086906104c3908790610cda565b6106d7565b6005546001600160a01b031633146105225760405162461bcd60e51b815260206004820181905260248201527f4f776e61626c653a2063616c6c6572206973206e6f7420746865206f776e657260448201526064016103db565b61052c60006108f6565b565b6060600480546102ea90610c89565b3360008181526001602090815260408083206001600160a01b0387168452909152812054909190838110156105da5760405162461bcd60e51b815260206004820152602560248201527f45524332303a2064656372656173656420616c6c6f77616e63652062656c6f7760448201527f207a65726f00000000000000000000000000000000000000000000000000000060648201526084016103db565b61047e82868684036106d7565b60003361037b81858561088d565b6005546001600160a01b0316331461064f5760405162461bcd60e51b815260206004820181905260248201527f4f776e61626c653a2063616c6c6572206973206e6f7420746865206f776e657260448201526064016103db565b6001600160a01b0381166106cb5760405162461bcd60e51b815260206004820152602660248201527f4f776e61626c653a206e6577206f776e657220697320746865207a65726f206160448201527f646472657373000000000000000000000000000000000000000000000000000060648201526084016103db565b6106d4816108f6565b50565b6001600160a01b0383166107395760405162461bcd60e51b8152602060048201526024808201527f45524332303a20617070726f76652066726f6d20746865207a65726f206164646044820152637265737360e01b60648201526084016103db565b6001600160a01b03821661079a5760405162461bcd60e51b815260206004820152602260248201527f45524332303a20617070726f766520746f20746865207a65726f206164647265604482015261737360f01b60648201526084016103db565b6001600160a01b0383811660008181526001602090815260408083209487168084529482529182902085905590518481527f8c5be1e5ebec7d5bd14f71427d1e84f3dd0314c0f7b2291e5b200ac8c7c3b925910160405180910390a3505050565b6001600160a01b038381166000908152600160209081526040808320938616835292905220546000198114610887578181101561087a5760405162461bcd60e51b815260206004820152601d60248201527f45524332303a20696e73756666696369656e7420616c6c6f77616e636500000060448201526064016103db565b61088784848484036106d7565b50505050565b600754600160a01b900460ff16156108e65760006108ac603283610cf2565b905060006108ba8284610d14565b90506108c7858583610960565b6006546108df9086906001600160a01b031684610960565b5050505050565b6108f1838383610960565b505050565b600580546001600160a01b038381167fffffffffffffffffffffffff0000000000000000000000000000000000000000831681179093556040519116919082907f8be0079c531659141344cd1fd0a4f28419497f9722a3daafe3b4186f6b6457e090600090a35050565b6001600160a01b0383166109dc5760405162461bcd60e51b815260206004820152602560248201527f45524332303a207472616e736665722066726f6d20746865207a65726f20616460448201527f647265737300000000000000000000000000000000000000000000000000000060648201526084016103db565b6001600160a01b038216610a3e5760405162461bcd60e51b815260206004820152602360248201527f45524332303a207472616e7366657220746f20746865207a65726f206164647260448201526265737360e81b60648201526084016103db565b6001600160a01b03831660009081526020819052604090205481811015610acd5760405162461bcd60e51b815260206004820152602660248201527f45524332303a207472616e7366657220616d6f756e742065786365656473206260448201527f616c616e6365000000000000000000000000000000000000000000000000000060648201526084016103db565b6001600160a01b03808516600090815260208190526040808220858503905591851681529081208054849290610b04908490610cda565b92505081905550826001600160a01b0316846001600160a01b03167fddf252ad1be2c89b69c2b068fc378daa952ba7f163c4a11628f55a4df523b3ef84604051610b5091815260200190565b60405180910390a3610887565b600060208083528351808285015260005b81811015610b8a57858101830151858201604001528201610b6e565b81811115610b9c576000604083870101525b50601f01601f1916929092016040019392505050565b80356001600160a01b0381168114610bc957600080fd5b919050565b60008060408385031215610be157600080fd5b610bea83610bb2565b946020939093013593505050565b600080600060608486031215610c0d57600080fd5b610c1684610bb2565b9250610c2460208501610bb2565b9150604084013590509250925092565b600060208284031215610c4657600080fd5b610c4f82610bb2565b9392505050565b60008060408385031215610c6957600080fd5b610c7283610bb2565b9150610c8060208401610bb2565b90509250929050565b600181811c90821680610c9d57607f821691505b60208210811415610cbe57634e487b7160e01b600052602260045260246000fd5b50919050565b634e487b7160e01b600052601160045260246000fd5b60008219821115610ced57610ced610cc4565b500190565b600082610d0f57634e487b7160e01b600052601260045260246000fd5b500490565b600082821015610d2657610d26610cc4565b50039056fea164736f6c6343000809000a60806040526002805460ff1990811690915560058054909116905534801561002657600080fd5b506040516111593803806111598339810160408190526100459161009f565b600680546001600160a01b0319166001600160a01b0392831617905560058054610100600160a81b03191661010093909216929092021790556100d2565b80516001600160a01b038116811461009a57600080fd5b919050565b600080604083850312156100b257600080fd5b6100bb83610083565b91506100c960208401610083565b90509250929050565b611078806100e16000396000f3fe60806040526004361061015f5760003560e01c806379c17c88116100c057806396b2070811610074578063c5c4744c11610059578063c5c4744c146103a6578063d0febe4c146103bc578063e48575d4146103c457600080fd5b806396b2070814610373578063bc1a2cc01461038857600080fd5b80637f649783116100a55780637f649783146103065780638456cb591461032657806384b95b831461033b57600080fd5b806379c17c88146102bb5780637a3a0e84146102e857600080fd5b80633d5dff53116101175780635c975abb116100fc5780635c975abb1461024a57806368742da61461027457806368955fb11461029457600080fd5b80633d5dff5314610200578063530dc3751461022d57600080fd5b80633171188411610148578063317118841461019b5780633351623a146101c3578063379607f5146101e057600080fd5b8063046f7da2146101645780630721c2971461017b575b600080fd5b34801561017057600080fd5b506101796103e9565b005b34801561018757600080fd5b50610179610196366004610e19565b610471565b3480156101a757600080fd5b506101b0600581565b6040519081526020015b60405180910390f35b3480156101cf57600080fd5b506101b0685150ae84a8cdf0000081565b3480156101ec57600080fd5b506101796101fb366004610e41565b6105d1565b34801561020c57600080fd5b506101b061021b366004610e72565b60046020526000908152604090205481565b34801561023957600080fd5b506101b0683635c9adc5dea0000081565b34801561025657600080fd5b506002546102649060ff1681565b60405190151581526020016101ba565b34801561028057600080fd5b5061017961028f366004610e72565b610746565b3480156102a057600080fd5b506005546102ae9060ff1681565b6040516101ba9190610ea5565b3480156102c757600080fd5b506101b06102d6366004610e72565b60036020526000908152604090205481565b3480156102f457600080fd5b506101b069065a4da25d3016c0000081565b34801561031257600080fd5b50610179610321366004610ecd565b6108b4565b34801561033257600080fd5b50610179610a25565b34801561034757600080fd5b5060065461035b906001600160a01b031681565b6040516001600160a01b0390911681526020016101ba565b34801561037f57600080fd5b506101b0606481565b34801561039457600080fd5b506101b069032d26d12e980b60000081565b3480156103b257600080fd5b506101b060015481565b610179610aab565b3480156103d057600080fd5b5060055461035b9061010090046001600160a01b031681565b6006546001600160a01b0316331461043c5760405162461bcd60e51b81526020600482015260116024820152701250d3ce88155b985d5d1a1bdc9a5e9959607a1b60448201526064015b60405180910390fd5b6002805460ff191690556040517fab5f6dacf93a267a93a533de8a56370de8341bbd8102017307e7be375c3dda6a90600090a1565b6006546001600160a01b031633146104bf5760405162461bcd60e51b81526020600482015260116024820152701250d3ce88155b985d5d1a1bdc9a5e9959607a1b6044820152606401610433565b60055460009060ff1660028111156104d9576104d9610e8f565b6104e4906001610f58565b60028111156104f5576104f5610e8f565b905080600281111561050957610509610e8f565b82600281111561051b5761051b610e8f565b146105685760405162461bcd60e51b815260206004820152601260248201527f49434f3a20496e76616c696420706861736500000000000000000000000000006044820152606401610433565b6005805482919060ff1916600183600281111561058757610587610e8f565b0217905550336001600160a01b03167f856c22550b8c047ee8b6e06911d7f899d3cd7ab6bc75cd49e76e1938e469312d826040516105c59190610ea5565b60405180910390a25050565b600260055460ff1660028111156105ea576105ea610e8f565b146106375760405162461bcd60e51b815260206004820152601b60248201527f49434f3a204e6f742d617661696c61626c652d746f2d636c61696d00000000006044820152606401610433565b336000908152600460205260409020548111156106965760405162461bcd60e51b815260206004820152601960248201527f49434f3a20436c61696d2d616d6f756e742d696e76616c6964000000000000006044820152606401610433565b33600090815260046020526040812080548392906106b5908490610f70565b909155505060055460405163a9059cbb60e01b8152336004820152602481018390526101009091046001600160a01b03169063a9059cbb90604401602060405180830381600087803b15801561070a57600080fd5b505af115801561071e573d6000803e3d6000fd5b505050506040513d601f19601f820116820180604052508101906107429190610f87565b5050565b600554604080516361d027b360e01b81529051339261010090046001600160a01b0316916361d027b3916004808301926020929190829003018186803b15801561078f57600080fd5b505afa1580156107a3573d6000803e3d6000fd5b505050506040513d601f19601f820116820180604052508101906107c79190610fa9565b6001600160a01b0316146108115760405162461bcd60e51b81526020600482015260116024820152701250d3ce88155b985d5d1a1bdc9a5e9959607a1b6044820152606401610433565b6000816001600160a01b03164760405160006040518083038185875af1925050503d806000811461085e576040519150601f19603f3d011682016040523d82523d6000602084013e610863565b606091505b50509050806107425760405162461bcd60e51b815260206004820152601a60248201527f49434f3a2077697468647261772066756e6473206661696c65640000000000006044820152606401610433565b6006546001600160a01b031633146109025760405162461bcd60e51b81526020600482015260116024820152701250d3ce88155b985d5d1a1bdc9a5e9959607a1b6044820152606401610433565b60648111156109535760405162461bcd60e51b815260206004820152601d60248201527f49434f3a20496e76616c69642077686974656c697374206c656e6774680000006044820152606401610433565b60005b81811015610a2057600160008085858581811061097557610975610fc6565b905060200201602081019061098a9190610e72565b6001600160a01b031681526020810191909152604001600020805460ff19169115159190911790558282828181106109c4576109c4610fc6565b90506020020160208101906109d99190610e72565b6001600160a01b03167fa850ae9193f515cbae8d35e8925bd2be26627fc91bce650b8652ed254e9cab0360405160405180910390a280610a1881610fdc565b915050610956565b505050565b6006546001600160a01b03163314610a735760405162461bcd60e51b81526020600482015260116024820152701250d3ce88155b985d5d1a1bdc9a5e9959607a1b6044820152606401610433565b6002805460ff191660011790556040517fab35696f06e428ebc5ceba8cd17f8fed287baf43440206d1943af1ee53e6d26790600090a1565b6000610ab5610c2b565b905080516000148190610adb5760405162461bcd60e51b81526004016104339190610ff7565b503460016000828254610aee9190610f58565b90915550503360009081526003602052604081208054349290610b12908490610f58565b9091555060009050610b2534600561104c565b9050600260055460ff166002811115610b4057610b40610e8f565b1415610bd45760055460405163a9059cbb60e01b8152336004820152602481018390526101009091046001600160a01b03169063a9059cbb90604401602060405180830381600087803b158015610b9657600080fd5b505af1158015610baa573d6000803e3d6000fd5b505050506040513d601f19601f82011682018060405250810190610bce9190610f87565b50610bf9565b3360009081526004602052604081208054839290610bf3908490610f58565b90915550505b60405134815233907f0c031f45b18305561115944c48c15b7aef3fdfe9182afbf6b01c249542ec6a11906020016105c5565b60025460609060ff1615610c71575060408051808201909152600b81527f49434f3a20506175736564000000000000000000000000000000000000000000602082015290565b600060055460ff166002811115610c8a57610c8a610e8f565b148015610ca757503360009081526020819052604090205460ff16155b15610ce4575060408051808201909152601481527f49434f3a204e6f742077686974656c6973746564000000000000000000000000602082015290565b33600090815260036020526040812054610cff903490610f58565b336000908152602081905260408120549192509060ff16610d2957683635c9adc5dea00000610d34565b685150ae84a8cdf000005b9050600034600154610d469190610f58565b905069065a4da25d3016c00000811115610d98576040518060400160405280601181526020017f49434f3a20476f616c2052656163686564000000000000000000000000000000815250935050505090565b600260055460ff166002811115610db157610db1610e8f565b14158015610dbe57508183115b15610e01576040518060400160405280601681526020017f49434f3a204d6178206c696d6974207265616368656400000000000000000000815250935050505090565b60405180602001604052806000815250935050505090565b600060208284031215610e2b57600080fd5b813560038110610e3a57600080fd5b9392505050565b600060208284031215610e5357600080fd5b5035919050565b6001600160a01b0381168114610e6f57600080fd5b50565b600060208284031215610e8457600080fd5b8135610e3a81610e5a565b634e487b7160e01b600052602160045260246000fd5b6020810160038310610ec757634e487b7160e01b600052602160045260246000fd5b91905290565b60008060208385031215610ee057600080fd5b823567ffffffffffffffff80821115610ef857600080fd5b818501915085601f830112610f0c57600080fd5b813581811115610f1b57600080fd5b8660208260051b8501011115610f3057600080fd5b60209290920196919550909350505050565b634e487b7160e01b600052601160045260246000fd5b60008219821115610f6b57610f6b610f42565b500190565b600082821015610f8257610f82610f42565b500390565b600060208284031215610f9957600080fd5b81518015158114610e3a57600080fd5b600060208284031215610fbb57600080fd5b8151610e3a81610e5a565b634e487b7160e01b600052603260045260246000fd5b6000600019821415610ff057610ff0610f42565b5060010190565b600060208083528351808285015260005b8181101561102457858101830151858201604001528201611008565b81811115611036576000604083870101525b50601f01601f1916929092016040019392505050565b600081600019048311821515161561106657611066610f42565b50029056fea164736f6c6343000809000a",
  "linkReferences": {},
  "deployedLinkReferences": {}
}