{
  "_format": "hh-sol-artifact-1",
  "contractName": "SpaceCoinLP",
  "sourceName": "contracts/SpaceCoinLP.sol",
  "abi": [
    {
      "inputs": [
        {
          "internalType": "address",
          "name": "_spaceCoin",
          "type": "address"
        }
      ],
      "stateMutability": "nonpayable",
      "type": "constructor"
    },
    {
      "anonymous": false,
      "inputs": [
        {
          "indexed": true,
          "internalType": "address",
          "name": "owner",
          "type": "address"
        },
        {
          "indexed": true,
          "internalType": "address",
          "name": "spender",
          "type": "address"
        },
        {
          "indexed": false,
          "internalType": "uint256",
          "name": "value",
          "type": "uint256"
        }
      ],
      "name": "Approval",
      "type": "event"
    },
    {
      "anonymous": false,
      "inputs": [
        {
          "indexed": true,
          "internalType": "address",
          "name": "from",
          "type": "address"
        },
        {
          "indexed": true,
          "internalType": "address",
          "name": "to",
          "type": "address"
        },
        {
          "indexed": false,
          "internalType": "uint256",
          "name": "value",
          "type": "uint256"
        }
      ],
      "name": "Transfer",
      "type": "event"
    },
    {
      "inputs": [
        {
          "internalType": "address",
          "name": "owner",
          "type": "address"
        },
        {
          "internalType": "address",
          "name": "spender",
          "type": "address"
        }
      ],
      "name": "allowance",
      "outputs": [
        {
          "internalType": "uint256",
          "name": "",
          "type": "uint256"
        }
      ],
      "stateMutability": "view",
      "type": "function"
    },
    {
      "inputs": [
        {
          "internalType": "address",
          "name": "spender",
          "type": "address"
        },
        {
          "internalType": "uint256",
          "name": "amount",
          "type": "uint256"
        }
      ],
      "name": "approve",
      "outputs": [
        {
          "internalType": "bool",
          "name": "",
          "type": "bool"
        }
      ],
      "stateMutability": "nonpayable",
      "type": "function"
    },
    {
      "inputs": [
        {
          "internalType": "address",
          "name": "account",
          "type": "address"
        }
      ],
      "name": "balanceOf",
      "outputs": [
        {
          "internalType": "uint256",
          "name": "",
          "type": "uint256"
        }
      ],
      "stateMutability": "view",
      "type": "function"
    },
    {
      "inputs": [
        {
          "internalType": "address",
          "name": "_to",
          "type": "address"
        }
      ],
      "name": "burn",
      "outputs": [
        {
          "internalType": "uint256",
          "name": "owedSpaceCoins",
          "type": "uint256"
        },
        {
          "internalType": "uint256",
          "name": "owedEth",
          "type": "uint256"
        }
      ],
      "stateMutability": "nonpayable",
      "type": "function"
    },
    {
      "inputs": [],
      "name": "decimals",
      "outputs": [
        {
          "internalType": "uint8",
          "name": "",
          "type": "uint8"
        }
      ],
      "stateMutability": "view",
      "type": "function"
    },
    {
      "inputs": [
        {
          "internalType": "address",
          "name": "spender",
          "type": "address"
        },
        {
          "internalType": "uint256",
          "name": "subtractedValue",
          "type": "uint256"
        }
      ],
      "name": "decreaseAllowance",
      "outputs": [
        {
          "internalType": "bool",
          "name": "",
          "type": "bool"
        }
      ],
      "stateMutability": "nonpayable",
      "type": "function"
    },
    {
      "inputs": [],
      "name": "ethReserves",
      "outputs": [
        {
          "internalType": "uint256",
          "name": "",
          "type": "uint256"
        }
      ],
      "stateMutability": "view",
      "type": "function"
    },
    {
      "inputs": [
        {
          "internalType": "address",
          "name": "spender",
          "type": "address"
        },
        {
          "internalType": "uint256",
          "name": "addedValue",
          "type": "uint256"
        }
      ],
      "name": "increaseAllowance",
      "outputs": [
        {
          "internalType": "bool",
          "name": "",
          "type": "bool"
        }
      ],
      "stateMutability": "nonpayable",
      "type": "function"
    },
    {
      "inputs": [
        {
          "internalType": "address",
          "name": "_to",
          "type": "address"
        }
      ],
      "name": "mint",
      "outputs": [
        {
          "internalType": "uint256",
          "name": "owedLPTokens",
          "type": "uint256"
        }
      ],
      "stateMutability": "payable",
      "type": "function"
    },
    {
      "inputs": [],
      "name": "name",
      "outputs": [
        {
          "internalType": "string",
          "name": "",
          "type": "string"
        }
      ],
      "stateMutability": "view",
      "type": "function"
    },
    {
      "inputs": [],
      "name": "spaceCoin",
      "outputs": [
        {
          "internalType": "contract SpaceCoin",
          "name": "",
          "type": "address"
        }
      ],
      "stateMutability": "view",
      "type": "function"
    },
    {
      "inputs": [],
      "name": "spaceCoinReserves",
      "outputs": [
        {
          "internalType": "uint256",
          "name": "",
          "type": "uint256"
        }
      ],
      "stateMutability": "view",
      "type": "function"
    },
    {
      "inputs": [
        {
          "internalType": "address",
          "name": "_to",
          "type": "address"
        },
        {
          "internalType": "uint256",
          "name": "spaceCoinsOut",
          "type": "uint256"
        },
        {
          "internalType": "uint256",
          "name": "ethOut",
          "type": "uint256"
        }
      ],
      "name": "swap",
      "outputs": [],
      "stateMutability": "payable",
      "type": "function"
    },
    {
      "inputs": [],
      "name": "symbol",
      "outputs": [
        {
          "internalType": "string",
          "name": "",
          "type": "string"
        }
      ],
      "stateMutability": "view",
      "type": "function"
    },
    {
      "inputs": [],
      "name": "totalSupply",
      "outputs": [
        {
          "internalType": "uint256",
          "name": "",
          "type": "uint256"
        }
      ],
      "stateMutability": "view",
      "type": "function"
    },
    {
      "inputs": [
        {
          "internalType": "address",
          "name": "to",
          "type": "address"
        },
        {
          "internalType": "uint256",
          "name": "amount",
          "type": "uint256"
        }
      ],
      "name": "transfer",
      "outputs": [
        {
          "internalType": "bool",
          "name": "",
          "type": "bool"
        }
      ],
      "stateMutability": "nonpayable",
      "type": "function"
    },
    {
      "inputs": [
        {
          "internalType": "address",
          "name": "from",
          "type": "address"
        },
        {
          "internalType": "address",
          "name": "to",
          "type": "address"
        },
        {
          "internalType": "uint256",
          "name": "amount",
          "type": "uint256"
        }
      ],
      "name": "transferFrom",
      "outputs": [
        {
          "internalType": "bool",
          "name": "",
          "type": "bool"
        }
      ],
      "stateMutability": "nonpayable",
      "type": "function"
    }
  ],
  "bytecode": "0x60806040523480156200001157600080fd5b506040516200181a3803806200181a833981016040819052620000349162000171565b604080518082018252600d81526c053706163652d636f696e2d6c7609c1b6020808301918252835180850190945260068452650a6a0868aa8960d31b9084015281519192916200008791600391620000cb565b5080516200009d906004906020840190620000cb565b5050600160055550600880546001600160a01b0319166001600160a01b0392909216919091179055620001e0565b828054620000d990620001a3565b90600052602060002090601f016020900481019282620000fd576000855562000148565b82601f106200011857805160ff191683800117855562000148565b8280016001018555821562000148579182015b82811115620001485782518255916020019190600101906200012b565b50620001569291506200015a565b5090565b5b808211156200015657600081556001016200015b565b6000602082840312156200018457600080fd5b81516001600160a01b03811681146200019c57600080fd5b9392505050565b600181811c90821680620001b857607f821691505b60208210811415620001da57634e487b7160e01b600052602260045260246000fd5b50919050565b61162a80620001f06000396000f3fe60806040526004361061010e5760003560e01c806370a08231116100a55780639f1d0f5911610074578063a9059cbb11610059578063a9059cbb146102dd578063dd62ed3e146102fd578063e48575d41461034357600080fd5b80639f1d0f59146102a8578063a457c2d7146102bd57600080fd5b806370a082311461021257806389afcb441461024857806395d89b411461027d57806397adce1c1461029257600080fd5b8063313ce567116100e1578063313ce567146101ad57806339509351146101c95780633e9f5e5a146101e95780636a627842146101ff57600080fd5b806306fdde0314610113578063095ea7b31461013e57806318160ddd1461016e57806323b872dd1461018d575b600080fd5b34801561011f57600080fd5b5061012861037b565b60405161013591906113d4565b60405180910390f35b34801561014a57600080fd5b5061015e610159366004611440565b61040d565b6040519015158152602001610135565b34801561017a57600080fd5b506002545b604051908152602001610135565b34801561019957600080fd5b5061015e6101a836600461146a565b610425565b3480156101b957600080fd5b5060405160128152602001610135565b3480156101d557600080fd5b5061015e6101e4366004611440565b610449565b3480156101f557600080fd5b5061017f60075481565b61017f61020d3660046114a6565b610488565b34801561021e57600080fd5b5061017f61022d3660046114a6565b6001600160a01b031660009081526020819052604090205490565b34801561025457600080fd5b506102686102633660046114a6565b61055d565b60408051928352602083019190915201610135565b34801561028957600080fd5b50610128610709565b34801561029e57600080fd5b5061017f60065481565b6102bb6102b63660046114c1565b610718565b005b3480156102c957600080fd5b5061015e6102d8366004611440565b610a43565b3480156102e957600080fd5b5061015e6102f8366004611440565b610aed565b34801561030957600080fd5b5061017f6103183660046114f4565b6001600160a01b03918216600090815260016020908152604080832093909416825291909152205490565b34801561034f57600080fd5b50600854610363906001600160a01b031681565b6040516001600160a01b039091168152602001610135565b60606003805461038a90611527565b80601f01602080910402602001604051908101604052809291908181526020018280546103b690611527565b80156104035780601f106103d857610100808354040283529160200191610403565b820191906000526020600020905b8154815290600101906020018083116103e657829003601f168201915b5050505050905090565b60003361041b818585610afb565b5060019392505050565b600033610433858285610c1f565b61043e858585610cb1565b506001949350505050565b3360008181526001602090815260408083206001600160a01b038716845290915281205490919061041b9082908690610483908790611572565b610afb565b6000600260055414156104e25760405162461bcd60e51b815260206004820152601f60248201527f5265656e7472616e637947756172643a207265656e7472616e742063616c6c0060448201526064015b60405180910390fd5b60026005556104ef610eae565b9050600081116105415760405162461bcd60e51b815260206004820152601e60248201527f5370616365436f696e4c503a20496e76616c6964206c6971756964697479000060448201526064016104d9565b61054b8282610fcd565b6105536110ac565b6001600555919050565b600080600260055414156105b35760405162461bcd60e51b815260206004820152601f60248201527f5265656e7472616e637947756172643a207265656e7472616e742063616c6c0060448201526064016104d9565b600260055530600090815260208190526040902054806106155760405162461bcd60e51b815260206004820152601b60248201527f5370616365436f696e4c503a204e6f204c5020746f207472616465000000000060448201526064016104d9565b600061062060025490565b90508060075483610631919061158a565b61063b91906115a9565b9350806006548361064c919061158a565b61065691906115a9565b60085460405163a9059cbb60e01b81526001600160a01b0388811660048301526024820188905292955091169063a9059cbb90604401602060405180830381600087803b1580156106a657600080fd5b505af11580156106ba573d6000803e3d6000fd5b505050506040513d601f19601f820116820180604052508101906106de91906115cb565b506106e98584611130565b6106f330836111fe565b6106fb6110ac565b505060016005559092909150565b60606004805461038a90611527565b6002600554141561076b5760405162461bcd60e51b815260206004820152601f60248201527f5265656e7472616e637947756172643a207265656e7472616e742063616c6c0060448201526064016104d9565b60026005558115158061077e5750600081115b6107f05760405162461bcd60e51b815260206004820152602560248201527f5370616365436f696e4c503a20496e76616c696420616d6f756e747320666f7260448201527f207377617000000000000000000000000000000000000000000000000000000060648201526084016104d9565b60075482108015610802575060065481105b61084e5760405162461bcd60e51b815260206004820152601e60248201527f5370616365436f696e4c503a2046756e647320756e617661696c61626c65000060448201526064016104d9565b600061085b6064846115a9565b9050600061086a6064846115a9565b90508315610926576008546001600160a01b031663a9059cbb8661088e85886115ed565b6040517fffffffff0000000000000000000000000000000000000000000000000000000060e085901b1681526001600160a01b0390921660048301526024820152604401602060405180830381600087803b1580156108ec57600080fd5b505af1158015610900573d6000803e3d6000fd5b505050506040513d601f19601f8201168201806040525081019061092491906115cb565b505b821561093f5761093f8561093a83866115ed565b611130565b6000600754600654610951919061158a565b6008546040516370a0823160e01b815230600482015291925060009147916001600160a01b0316906370a082319060240160206040518083038186803b15801561099a57600080fd5b505afa1580156109ae573d6000803e3d6000fd5b505050506040513d601f19601f820116820180604052508101906109d29190611604565b6109dc919061158a565b9050818111610a2d5760405162461bcd60e51b815260206004820152601960248201527f5370616365436f696e4c503a20496e76616c696420737761700000000000000060448201526064016104d9565b610a356110ac565b505060016005555050505050565b3360008181526001602090815260408083206001600160a01b038716845290915281205490919083811015610ae05760405162461bcd60e51b815260206004820152602560248201527f45524332303a2064656372656173656420616c6c6f77616e63652062656c6f7760448201527f207a65726f00000000000000000000000000000000000000000000000000000060648201526084016104d9565b61043e8286868403610afb565b60003361041b818585610cb1565b6001600160a01b038316610b5d5760405162461bcd60e51b8152602060048201526024808201527f45524332303a20617070726f76652066726f6d20746865207a65726f206164646044820152637265737360e01b60648201526084016104d9565b6001600160a01b038216610bbe5760405162461bcd60e51b815260206004820152602260248201527f45524332303a20617070726f766520746f20746865207a65726f206164647265604482015261737360f01b60648201526084016104d9565b6001600160a01b0383811660008181526001602090815260408083209487168084529482529182902085905590518481527f8c5be1e5ebec7d5bd14f71427d1e84f3dd0314c0f7b2291e5b200ac8c7c3b925910160405180910390a3505050565b6001600160a01b038381166000908152600160209081526040808320938616835292905220546000198114610cab5781811015610c9e5760405162461bcd60e51b815260206004820152601d60248201527f45524332303a20696e73756666696369656e7420616c6c6f77616e636500000060448201526064016104d9565b610cab8484848403610afb565b50505050565b6001600160a01b038316610d2d5760405162461bcd60e51b815260206004820152602560248201527f45524332303a207472616e736665722066726f6d20746865207a65726f20616460448201527f647265737300000000000000000000000000000000000000000000000000000060648201526084016104d9565b6001600160a01b038216610d8f5760405162461bcd60e51b815260206004820152602360248201527f45524332303a207472616e7366657220746f20746865207a65726f206164647260448201526265737360e81b60648201526084016104d9565b6001600160a01b03831660009081526020819052604090205481811015610e1e5760405162461bcd60e51b815260206004820152602660248201527f45524332303a207472616e7366657220616d6f756e742065786365656473206260448201527f616c616e6365000000000000000000000000000000000000000000000000000060648201526084016104d9565b6001600160a01b03808516600090815260208190526040808220858503905591851681529081208054849290610e55908490611572565b92505081905550826001600160a01b0316846001600160a01b03167fddf252ad1be2c89b69c2b068fc378daa952ba7f163c4a11628f55a4df523b3ef84604051610ea191815260200190565b60405180910390a3610cab565b6008546040516370a0823160e01b815230600482015260009182916001600160a01b03909116906370a082319060240160206040518083038186803b158015610ef657600080fd5b505afa158015610f0a573d6000803e3d6000fd5b505050506040513d601f19601f82011682018060405250810190610f2e9190611604565b9050476000610f3c60025490565b6007546006549192509082610f6757610f5d610f58858761158a565b61134c565b9550505050505090565b6000610f7383876115ed565b90506000610f8183876115ed565b9050600084610f90878561158a565b610f9a91906115a9565b9050600084610fa9888561158a565b610fb391906115a9565b9050610fbf82826113bc565b995050505050505050505090565b6001600160a01b0382166110235760405162461bcd60e51b815260206004820152601f60248201527f45524332303a206d696e7420746f20746865207a65726f20616464726573730060448201526064016104d9565b80600260008282546110359190611572565b90915550506001600160a01b03821660009081526020819052604081208054839290611062908490611572565b90915550506040518181526001600160a01b038316906000907fddf252ad1be2c89b69c2b068fc378daa952ba7f163c4a11628f55a4df523b3ef9060200160405180910390a35050565b6008546040516370a0823160e01b81523060048201526001600160a01b03909116906370a082319060240160206040518083038186803b1580156110ef57600080fd5b505afa158015611103573d6000803e3d6000fd5b505050506040513d601f19601f820116820180604052508101906111279190611604565b60075547600655565b6000826001600160a01b03168260405160006040518083038185875af1925050503d806000811461117d576040519150601f19603f3d011682016040523d82523d6000602084013e611182565b606091505b50509050806111f95760405162461bcd60e51b815260206004820152602b60248201527f5370616365436f696e4c503a204661696c656420746f207472616e736665722060448201527f45544820746f207573657200000000000000000000000000000000000000000060648201526084016104d9565b505050565b6001600160a01b03821661125e5760405162461bcd60e51b815260206004820152602160248201527f45524332303a206275726e2066726f6d20746865207a65726f206164647265736044820152607360f81b60648201526084016104d9565b6001600160a01b038216600090815260208190526040902054818110156112d25760405162461bcd60e51b815260206004820152602260248201527f45524332303a206275726e20616d6f756e7420657863656564732062616c616e604482015261636560f01b60648201526084016104d9565b6001600160a01b03831660009081526020819052604081208383039055600280548492906113019084906115ed565b90915550506040518281526000906001600160a01b038516907fddf252ad1be2c89b69c2b068fc378daa952ba7f163c4a11628f55a4df523b3ef9060200160405180910390a3505050565b600060038211156113ad57508060006113666002836115a9565b611371906001611572565b90505b818110156113a75790508060028161138c81866115a9565b6113969190611572565b6113a091906115a9565b9050611374565b50919050565b81156113b7575060015b919050565b60008183106113cb57816113cd565b825b9392505050565b600060208083528351808285015260005b81811015611401578581018301518582016040015282016113e5565b81811115611413576000604083870101525b50601f01601f1916929092016040019392505050565b80356001600160a01b03811681146113b757600080fd5b6000806040838503121561145357600080fd5b61145c83611429565b946020939093013593505050565b60008060006060848603121561147f57600080fd5b61148884611429565b925061149660208501611429565b9150604084013590509250925092565b6000602082840312156114b857600080fd5b6113cd82611429565b6000806000606084860312156114d657600080fd5b6114df84611429565b95602085013595506040909401359392505050565b6000806040838503121561150757600080fd5b61151083611429565b915061151e60208401611429565b90509250929050565b600181811c9082168061153b57607f821691505b602082108114156113a757634e487b7160e01b600052602260045260246000fd5b634e487b7160e01b600052601160045260246000fd5b600082198211156115855761158561155c565b500190565b60008160001904831182151516156115a4576115a461155c565b500290565b6000826115c657634e487b7160e01b600052601260045260246000fd5b500490565b6000602082840312156115dd57600080fd5b815180151581146113cd57600080fd5b6000828210156115ff576115ff61155c565b500390565b60006020828403121561161657600080fd5b505191905056fea164736f6c6343000809000a",
  "linkReferences": {},
  "deployedLinkReferences": {}
}